{
  "transactions": [
    {
      "hash": "0xadf401027282ae3004caea2fcae6c7e76adf51c616cdf4709e9d88c408bed096",
      "transactionType": "CALL",
      "contractName": null,
      "contractAddress": "0x320bd31ee3194b2c396332e2891b5bc4f58816e9",
      "function": "mintNft(string)",
      "arguments": [
        "\"ipfs://bafybeig37ioir76s7mg5oobetncojcm3c3hxasyd4rvid4jqhy4gkaheg4/?filename=0-PUG.json\""
      ],
      "transaction": {
        "from": "0x870eecb57de0903d5e8f187441190c3e83cd94bd",
        "to": "0x320bd31ee3194b2c396332e2891b5bc4f58816e9",
        "gas": "0x3d481",
        "value": "0x0",
        "input": "0xda86f4a900000000000000000000000000000000000000000000000000000000000000200000000000000000000000000000000000000000000000000000000000000057697066733a2f2f62616679626569673337696f6972373673376d67356f6f6265746e636f6a636d3363336878617379643472766964346a71687934676b61686567342f3f66696c656e616d653d302d5055472e6a736f6e000000000000000000",
        "nonce": "0x33",
        "chainId": "0xaa36a7"
      },
      "additionalContracts": [],
      "isFixedGasLimit": false
    }
  ],
  "receipts": [
    {
      "status": "0x1",
      "cumulativeGasUsed": "0x58b1e9",
      "logs": [
        {
          "address": "0x320bd31ee3194b2c396332e2891b5bc4f58816e9",
          "topics": [
            "0xddf252ad1be2c89b69c2b068fc378daa952ba7f163c4a11628f55a4df523b3ef",
            "0x0000000000000000000000000000000000000000000000000000000000000000",
            "0x000000000000000000000000870eecb57de0903d5e8f187441190c3e83cd94bd",
            "0x0000000000000000000000000000000000000000000000000000000000000001"
          ],
          "data": "0x",
          "blockHash": "0xa937d1f6dd677ac478d2892317fdc611c6d4065b8a8bd2bf3b7bd199b0727a21",
          "blockNumber": "0x5faade",
          "transactionHash": "0xadf401027282ae3004caea2fcae6c7e76adf51c616cdf4709e9d88c408bed096",
          "transactionIndex": "0x1f",
          "logIndex": "0x55",
          "removed": false
        }
      ],
      "logsBloom": "0x00000004000000000000000000000000000200000000000000000000000000000000200000000000000000000000000000800000000000000000100000040000000000000000000000000008000000000000000000040000000000000000000000000000020800000000000000000800000000000000000000000010000000000000000000000000000000000000000000000000000000000000000000000000000000000000000000000000000000000000000000000000000000000000000000000002000000000000000000000000000000000000000000000000000060000000000000000000000000000000000000000000000000000000000000000000",
      "type": "0x2",
      "transactionHash": "0xadf401027282ae3004caea2fcae6c7e76adf51c616cdf4709e9d88c408bed096",
      "transactionIndex": "0x1f",
      "blockHash": "0xa937d1f6dd677ac478d2892317fdc611c6d4065b8a8bd2bf3b7bd199b0727a21",
      "blockNumber": "0x5faade",
      "gasUsed": "0x2c5df",
      "effectiveGasPrice": "0x11cbd6842e",
      "from": "0x870eecb57de0903d5e8f187441190c3e83cd94bd",
      "to": "0x320bd31ee3194b2c396332e2891b5bc4f58816e9",
      "contractAddress": null
    }
  ],
  "libraries": [],
  "pending": [],
  "returns": {},
  "timestamp": 1720436920,
  "chain": 11155111,
  "commit": "5710993"
}