{
  "transactions": [
    {
      "hash": "0x11351278b944232f0b41b37d8456d8da4219de707b73d5a53582e006c7509107",
      "transactionType": "CALL",
      "contractName": null,
      "contractAddress": "0x320bd31ee3194b2c396332e2891b5bc4f58816e9",
      "function": "mintNft(string)",
      "arguments": [
        "\"ipfs://bafybeig37ioir76s7mg5oobetncojcm3c3hxasyd4rvid4jqhy4gkaheg4/?filename=0-PUG.json\""
      ],
      "transaction": {
        "from": "0x870eecb57de0903d5e8f187441190c3e83cd94bd",
        "to": "0x320bd31ee3194b2c396332e2891b5bc4f58816e9",
        "gas": "0x31bfb",
        "value": "0x0",
        "input": "0xda86f4a900000000000000000000000000000000000000000000000000000000000000200000000000000000000000000000000000000000000000000000000000000057697066733a2f2f62616679626569673337696f6972373673376d67356f6f6265746e636f6a636d3363336878617379643472766964346a71687934676b61686567342f3f66696c656e616d653d302d5055472e6a736f6e000000000000000000",
        "nonce": "0x34",
        "chainId": "0xaa36a7"
      },
      "additionalContracts": [],
      "isFixedGasLimit": false
    }
  ],
  "receipts": [
    {
      "status": "0x1",
      "cumulativeGasUsed": "0xe8589c",
      "logs": [
        {
          "address": "0x320bd31ee3194b2c396332e2891b5bc4f58816e9",
          "topics": [
            "0xddf252ad1be2c89b69c2b068fc378daa952ba7f163c4a11628f55a4df523b3ef",
            "0x0000000000000000000000000000000000000000000000000000000000000000",
            "0x000000000000000000000000870eecb57de0903d5e8f187441190c3e83cd94bd",
            "0x0000000000000000000000000000000000000000000000000000000000000002"
          ],
          "data": "0x",
          "blockHash": "0x284d9b5b9be5991c01ece66aeb973a358da280f6bb0cfb5f7afd536b246ac7a6",
          "blockNumber": "0x5faae4",
          "transactionHash": "0x11351278b944232f0b41b37d8456d8da4219de707b73d5a53582e006c7509107",
          "transactionIndex": "0x53",
          "logIndex": "0xd2",
          "removed": false
        }
      ],
      "logsBloom": "0x04000004000000000000000000000000000200000000000000000000000000000000200000000000000000000000000000800000000000000000100000000000000000000000000000000008000000000000000000000000000000000000000000000000020800000000000000000800000000000000000000000010000000000000000000000000000000000000000000000000000000000000000000000000000000000000000000000100000000000000000000000000000000000000000000000002000000000000000000000000000000000000000000000000000020000000000000000000000000000000000000000000008000000000000000000000",
      "type": "0x2",
      "transactionHash": "0x11351278b944232f0b41b37d8456d8da4219de707b73d5a53582e006c7509107",
      "transactionIndex": "0x53",
      "blockHash": "0x284d9b5b9be5991c01ece66aeb973a358da280f6bb0cfb5f7afd536b246ac7a6",
      "blockNumber": "0x5faae4",
      "gasUsed": "0x24047",
      "effectiveGasPrice": "0x113a497728",
      "from": "0x870eecb57de0903d5e8f187441190c3e83cd94bd",
      "to": "0x320bd31ee3194b2c396332e2891b5bc4f58816e9",
      "contractAddress": null
    }
  ],
  "libraries": [],
  "pending": [],
  "returns": {},
  "timestamp": 1720437005,
  "chain": 11155111,
  "commit": "5710993"
}